:1000000016EF00F00000000000EF00F0000000001C
:0A0010000000000000000000F3D71C
:10001C000900F5CFE6FF0006FBE10106F9E112004D
:10002C009380959081B010D083800B0E0B6E260EB2
:10003C000C6E5D0E0D6E0D2EFED70C2EFCD70B2EFE
:10004C00FAD7000000000FD083900B0E0B6E260E1B
:10005C000C6E5D0E0D6E0D2EFED70C2EFCD70B2EDE
:0A006C00FAD700000000DED7FFD72E
:020000040030CA
:0D000100220F0EFF0181FF0FC00FE00F4026
:00000001FF
