:040000008FEF04F08A
:1000080000C018F001C017F00CC016F00DC015F0B4
:10001800F2A0FFD0496A0F0E476E040E495C25E234
:1000280047500F0A22E1818081828184818649506C
:10003800000AD8B481904950010AD8B48192495035
:10004800020AD8B481944950030AD8B4819681CF62
:1000580000F00032009E0032009E0032009E003206
:10006800009E00C047F0492AD8D781CF4DF0000E36
:100078004E6E4A0E4F6E000E506E41DB00C04BF0C4
:1000880001C04CF081908192819481961E50010AA2
:10009800D8A4B9D0010E5E6ED8D84A50060A21E11C
:1000A8001D50070A1EE119C000F01AC001F00A0E1F
:1000B800046E000E056ED9D900C019F001C01AF0FF
:1000C8004B5000264C50012200C019F001C01AF014
:1000D80000C04DF001C04EF01F0E4F6E000E506E66
:1000E800A2DA4A50060A08E04A50050A05E04A50D2
:1000F800000A02E04AC01DF04A50060A21E11D50DC
:10010800070A1EE01BC000F01CC001F00A0E046EB6
:10011800000E056EAAD900C01BF001C01CF04B50A0
:1001280000264C50012200C01BF001C01CF000C08A
:100138004DF001C04EF01F0E4F6E000E506E73DA78
:100148004A50000A46E11D50010A0BE11B501924D0
:100158004D6E1C501A204E6E1F0E4F6E000E506EC4
:1001680062DA1D50020A0BE11B50195C4D6E1C50DF
:100178001A584E6E1F0E4F6E000E506E54DA1D50F8
:10018800030A12E119C000F01AC001F01BC004F004
:100198001CC005F06AD900C04DF001C04EF01F0E1A
:1001A8004F6E000E506E3FDA1D50040A12E11BC05C
:1001B80004F01CC005F019C000F01AC001F0D0D935
:1001C80000C04DF001C04EF01F0E4F6E000E506E75
:1001D8002ADA4A50050A0DE1196A1A6A1B6A1C6A6A
:1001E800070E1D6E4D6A4E6A1F0E4F6E000E506E42
:1001F8001ADA010E4D6E010E4E6E1F0E4F6E000E76
:10020800506EF6D800D01E52010ED8A4000E1E6EF5
:10021800F29018C000F017C001F016C00CF015C01D
:040228000DF01100C4
:10022C000F0E0C6E470E0D6E0D2EFED70C2EFCD73E
:06023C00000000001200AA
:06024200000000001200A4
:0A024800210E0D6E0D2EFED71200E0
:100252005EBE02D0839E01D0838E5EBC02D0839CA0
:1002620001D0838C5EBA02D0839A01D0838A5EB8B1
:1002720002D0839801D0838848B002D0848401D010
:1002820084948482DDDF84925EB602D0839E01D0A4
:10029200838E5EB402D0839C01D0838C5EB202D086
:1002A200839A01D0838A5EB002D0839801D083887A
:1002B20048B002D0848401D084948482C1DF8492C5
:0C02C20048A002D0B2DF01D0BEDF120065
:1002CE00086A096A100E0C6E01340836093604509D
:1002DE00085E0550D8A0053C095ED8B007D0045082
:1002EE0008260550D8B0053C0926D89000360136B0
:0602FE000C2EEAD71200ED
:100304000134083609360450085E0550D8A0053C6F
:10031400095E003601360F0E0C6E013408360936BC
:10032400045000A006D0085E0550D8A0053C095E24
:1003340005D008260550D8B0053C092600360136FC
:100344000C2EEBD700B006D0045008260550D8B0C8
:08035400053C0926000012001F
:0C035C00489057C05EF077DF4880120028
:100368005B6A050E5B5C0AE25B505924E16E000E85
:100378005A20E26E200EE66E5B2AF3D75B505924B2
:10038800E16E000E5A20E26EE66A5B065B50592465
:100398005C6E000E5A205D6E0A0E046E000E056E2D
:1003A80057C000F058C001F08EDF08C000F009C047
:1003B80001F0300E00265CC0E1FF5DC0E2FF00C026
:1003C800E6FF0A0E046E000E056E57C000F058C016
:1003D80001F079DF00C057F001C058F0000E011895
:1003E80002E1000E001801E102D05B06CFD712002F
:1003F8000FD0800E4D6E19D0C00E4D6E16D0940ED3
:100408004D6E13D0D40E4D6E10D0800E4D6E0DD0A3
:100418004D50010AEEE04D50020AEEE04D50030A3D
:10042800EEE04D50040AEEE0F0D74E04006E4D5059
:10043800002600C04DF000C05EF007DF4890516A0A
:1004480051504F24E96E000E5020EA6EEE520BE038
:1004580051504F24E96E000E5020EA6EEECF57F04F
:0A04680079DF512AEDD74880120019
:100472000B6A0A6A096A00500402F4CF09F0F3CF4A
:1004820008F001500502F4CF0BF0F3CF0AF0005050
:100492000502F3500926F4500A22E86A0B220150A1
:1004A2000402F3500926F4500A22E86A0B2208C01B
:1004B20000F009C001F00AC002F00BC003F0120004
:1004C200969296949598959A959C959E84928494EA
:1004D200839E839C839A8398A8DEA7DEA6DE838A06
:1004E20083888482ADDE8492A0DE8482A9DE849237
:1004F2009CDE8482A5DE849298DE83988482A0DECC
:10050200849293DE84829CDE8492839A838E848298
:1005120097DE84928ADE839E8388848291DE84922F
:10052200839884828DDE849280DE848289DE849246
:100532008388848285DE849278DE8398848280DE5A
:100542008492838E838C838A8388848279DE8492E8
:060552006CDE488012007F
:100558000900F5CFE6FF0006FBE10106F9E112000C
:100568000450000A08E10550000A05E1FF0E006E7C
:100578007F0E016E57D00D6A096A086A0150001093
:10058800D8B4000C015005180A6E0ABE0D1E0B6A7D
:1005980005AE05D0041E051E042AD8B4052A01AEEE
:1005A80005D0001E011E002AD8B4012A01500510EA
:1005B8000A6E0ABE10D0A2DE0BB020D00DAE000C21
:1005C800001E011E002AD8B4012A081E091E082A86
:1005D800D8B4092A000C05AE0DD001BE07D00150D1
:1005E800096E0050086E016A006AE8D7016A006A5D
:1005F800002A000C011E001E0B2ADDD7082AD8B4D9
:10060800092A0450085CD8A4D9D70550095CD8A495
:10061800D5D7096A086A002AD8B4012A01AECED70C
:060628000000FF0C1200AF
:10062E00536A546A4DC055F04EC056F0800E4E18A7
:10063E00006E800E005C02E1000E4D5C0BE2010EBE
:10064E00536E000E546E4D500008556E4EC056F04F
:10065E00000E565655C057F056C058F04FC059F0C0
:10066E0050C05AF07ADE060E516E000E526E000E1B
:10067E00006E5250005C02E15150000819E25150D8
:10068E004F24E16E52505020E26E010E515C006E0E
:10069E00000E5258016E00504F24E96E015050204A
:1006AE00EA6EEECFE6FF010E515E000E525ADFD714
:1006BE004FC0E1FF50C0E2FF200EE66E53505410C3
:1006CE001AE0516A526A51504F24E96E525050202E
:1006DE00EA6EEE50200A03E1514A522AF4D7010E77
:1006EE00515E000E525A51504F24E16E525050201E
:0806FE00E26E2D0EE66E120003
:10070600FF0E516EFF0E526E95D04FC0E1FF50C0E6
:10071600E2FF050EE66EFBD04FC0E1FF50C0E2FFE0
:10072600060EE66E516A526AF2D04FC0E1FF50C023
:10073600E2FFE66AECD04FC0E1FF50C0E2FF010ED7
:10074600E66EE5D04FC0E1FF50C0E2FF060EE66E52
:10075600010E516E000E526EDAD04FC0E1FF50C04E
:10076600E2FF060EE66E020E516E000E526ECFD0FE
:100776004FC0E1FF50C0E2FF060EE66E030E516E5B
:10078600000E526EC4D04FC0E1FF50C0E2FF020E11
:10079600E66EBDD04FC0E1FF50C0E2FF060EE66E2A
:1007A600040E516E000E526EB2D04FC0E1FF50C023
:1007B600E2FF060EE66E050E516E000E526EA7D0D3
:1007C6004FC0E1FF50C0E2FF060EE66E060E516E08
:1007D600000E526E9CD04FC0E1FF50C0E2FF030EE8
:1007E600E66E95D04FC0E1FF50C0E2FF060EE66E02
:1007F600070E516E000E526E8AD04FC0E1FF50C0F8
:10080600E2FF060EE66E080E516E000E526E7FD0A7
:100816004FC0E1FF50C0E2FF060EE66E090E516EB4
:10082600000E526E74D04FC0E1FF50C0E2FF040EBE
:10083600E66E6DD0000E4E1802E1E70E4D18D8B4E4
:1008460064D7000E4E1802E1D70E4D18D8B464D7FF
:10085600000E4E1802E1B70E4D18D8B466D7000E3A
:100866004E1802E1770E4D18D8B465D7000E4E1813
:1008760002E1EB0E4D18D8B465D7000E4E1802E112
:10088600DB0E4D18D8B469D7000E4E1802E1BB0E28
:100896004D18D8B46DD7000E4E1802E17B0E4D18D8
:1008A600D8B471D7000E4E1802E1ED0E4D18D8B42B
:1008B60071D7000E4E1802E1DD0E4D18D8B475D76B
:1008C600000E4E1802E1BD0E4D18D8B479D7000EB1
:1008D6004E1802E17D0E4D18D8B47DD7000E4E1885
:1008E60002E1EE0E4D18D8B47DD7000E4E1802E187
:1008F600DE0E4D1882E0000E4E1802E1BE0E4D18B7
:1009060087E0000E4E1802E17E0E4D188CE051C0B5
:0809160000F052C001F01200D4
:10091E00196A1A6A1B6A1C6A070E1D6E010E1E6E7C
:10092E00060EC16EC7DDF28E9388938A938C938EDA
:10093E0093909392939493968190819281948196C1
:06094E00F286F290FFD7D3
:020000040030CA
:0D000100220F0EFF0181FF0FC00FE00F4026
:00000001FF
